:020000041000EA
:100000006F1090066F1050066F1010066F10D0051D
:100010006F1090056F1050056F1010056F10D00411
:100020006F1090046F1050046F1010046F10D00305
:100030006F1090036F1050036F1010036F10D002F9
:100040006F1000016F0060726F0020726F00E0712E
:100050006F0070586F0060716F0020716F00E0706A
:100060006F00A0706F0060706F0020706F00E06F15
:100070006F00A06F6F00606F6F00206F6F00E06E09
:100080006F0080686F10407E6F10007E2A83AE88FC
:1000900032872A88AE8763960620B725001093859D
:1000A000C58963F1C80CC1666377D60A933606101A
:1000B00093C616008E063355D600AA9583C5050053
:1000C00013050002AE96B305D540630BD500B39778
:1000D000B800B356D3003317B600D58F3318B3002A
:1000E0009355070133D3B702131607014182B3F7C3
:1000F000B7021A85B3086602939607019357080161
:10010000D58F63FC1701BA971305F3FF63E7E70088
:1001100063F517011305E3FFBA97B3871741B3D807
:10012000B702420813580801B3F7B702B306160323
:10013000C2073368F800C687637BD8003A98938774
:10014000F8FF6366E8006374D8009387E8FF420510
:100150005D8D8145828037050001C146E36DA6F4BF
:10016000E14691BF11E20290C167637FF6089336C2
:10017000061093C616008E06B357D600BE9583C7E9
:100180000500B69793060002B385F6406395F6081E
:10019000B387C84085459358070133DE170313160C
:1001A0000701418293560801B3F7170372853303A1
:1001B000C603C207D58F63FC6700BA971305FEFF1D
:1001C00063E7E70063F567001305EEFFBA97B387AF
:1001D000674033D31703420813580801B3F71703D6
:1001E000B3066602C2073368F8009A87637BD800BB
:1001F0003A989307F3FF6366E8006374D8009307A7
:10020000E3FF42055D8D8280B7070001C146E365CB
:10021000F6F6E14695B73317B600B3D6F800135596
:100220000701B357F3003318B30033D3A6021316F4
:100230000701B398B8004182B3E71701B3F6A602ED
:10024000B30866029395060193D60701CD8E9A8571
:1002500063FC1601BA969305F3FF63E7E60063F5C6
:1002600016019305E3FFBA96B3861641B3D8A602EA
:10027000C207C183B3F6A60233061603C206D58FA2
:10028000C68663FCC700BA979386F8FF63E7E7006A
:1002900063F5C7009386E8FFBA97C205918FD58DA5
:1002A000DDBD63E1D514C16763FFF60213B7061025
:1002B000134717000E07B7270010B3D5E600938742
:1002C000C789AE9783C70700BA9713070002B30523
:1002D000F7406311F7020545E3EE16E73335C30037
:1002E000134515008280B70700014147E3E5F6FC9E
:1002F0006147D1B73357F600B396B600D98E33D7DE
:10030000F800B398B800B357F300B3E7170193D8D8
:100310000601B35E1703139806011358080133163C
:10032000B60033771703330ED8031315070113D71D
:100330000701498F7685637CC70136971385FEFFD9
:100340006367D7006375C7011385EEFF36973307E0
:10035000C741335E1703C207C183337717033308DE
:10036000C8034207D98F728763FC0701B69713074A
:10037000FEFF63E7D70063F507011307EEFFB697AB
:100380004205416E598D9306FEFF3377D500B38742
:100390000741F18E135805014182B308D702B30615
:1003A000D8023307C7023308C8023306D70013D771
:1003B000080132976373D700729893560701C2966B
:1003C00063E0D702E397D7D8C167FD177D8F420757
:1003D000B3F8F8003313B30046978145E37CE3D6C6
:1003E0007D1585BB8145014582803288AA872E878D
:1003F0006393061AB72800109388C88963F6C50A64
:10040000C166637CD6089336061093C616008E0626
:100410003353D6009A9883C8080013030002C69687
:10042000B308D340630BD30033971501B356D500FF
:1004300033181601558FB317150113560801B3561B
:10044000C7021315080141813377C702B386A6029C
:100450009315070113D707014D8F6378D700429793
:10046000636507016373D7004297158FB356C702C0
:100470003377C702B386A602C2074207C183D98F6A
:1004800063F8D700C29763E5070163F3D700C2970B
:10049000958F33D517018145828037030001C1460E
:1004A000E36866F6E146ADB711E202904167637416
:1004B000E6069336061093C616008E063357D6000E
:1004C000BA9803C70800369793060002B388E6403F
:1004D000639AE6043387C540935508013356B70243
:1004E00013150801418193D607013377B70233060C
:1004F000A6024207558F6378C700429763650701DC
:100500006373C7004297118FB356B7023377B702B0
:10051000B386A60295B737070001C146E360E6FA45
:10052000E14669BF33181601B3D6E500B3171501CC
:10053000B39515013357E500135508014D8FB3D519
:10054000A6021313080113530301B3F6A602B385E1
:1005500065021396060193560701D18E63F8B60023
:10056000C29663E5060163F3B600C2968D8E33D65C
:10057000A60242074183B3F6A60233066602C2060C
:10058000558F6378C7004297636507016373C7009F
:100590004297118F91B763E8D516416863F7060556
:1005A00013B80610134818000E08B728001033D3EC
:1005B00006019388C8899A9883C80800130300022B
:1005C000C298330813416319130363E4B600636BE5
:1005D000C5003306C540B386D5403337C5003387E1
:1005E000E640B2873E85BA858280B708000141485F
:1005F000E3ED16FB614855BFB39606013353160170
:100600003363D300135E0301B3D6150133DFC60392
:10061000131703014183B3970501B3551501DD8D10
:1006200093D705013316060133150501B3F6C6034A
:10063000B30EE703C206D58FFA8663FCD7019A97FB
:100640009306FFFF63E7670063F5D7019306EFFFAB
:100650009A97B387D741B3DEC703C205C181B3F709
:10066000C7033307D703C207DD8DF68763FCE500B8
:100670009A959387FEFF63E7650063F5E50093872E
:10068000EEFF9A95C206416FDD8E9307FFFF135E62
:100690000601998D33F7F600C182F18FB30EF70290
:1006A000B387F6023307C703B386C603330EF700DA
:1006B00013D70E0172976373F700FA9693570701E9
:1006C000B697C166FD16758F4207B3FEDE007697BA
:1006D00063E6F500639BF5006379E5003306C740E8
:1006E0003337C7001A97998F32873307E540333580
:1006F000E5009D8D898DB39815013357070133E5CA
:10070000E800B3D505018280170102001301818F33
:10071000971C0000938C0C36170D0100130D8D8E65
:10072000970D0100938D0D8E635ABD0103AE0C0031
:100730002320CD01910C110DE3DAADFF170D01005F
:10074000130D4D8C970D0100938D0D986357BD01CE
:1007500023200D00110DE3DDADFF1305000093050F
:100760000000EF00B0196F00400001A05D7106D6D7
:1007700022D40018232EA4FC232CB4FC10C454C48F
:1007800018C85CC8232C0401232E1401930704020B
:10079000232AF4FC832744FDA1172326F4FE832794
:1007A000C4FE3E86832584FD0325C4FD312001005F
:1007B000B2502254616182805D7186C6A2C48008F5
:1007C000232EA4FA232CB4FA232AC4FA832784FB09
:1007D0002326F4FE4DA98327C4FE03C70700930711
:1007E00050026312F7488327C4FE85072326F4FED0
:1007F000232404FE232204FE232004FE8327C4FEB8
:1008000003C70700930700036315F700930700036E
:1008100019A093070002A30FF4FC2DA0032784FE68
:10082000BA878A07BA978607BE868327C4FE1387CE
:1008300017002326E4FE83C70700B697938707FDBA
:100840002324F4FE8327C4FE03C707009307F002A6
:1008500063FAE7008327C4FE03C7070093079003EA
:10086000E3FEE7FA8327C4FE83C7070063840742D9
:1008700063CD073E130780076349F73E13078005E2
:1008800063C5E73E938787FA13070002636FF73C5F
:10089000139727009717000093878710BA979843FC
:1008A000971700009387C70FBA978287832744FB67
:1008B00013874700232AE4FA9C4393F7F70F032793
:1008C000C4FB3E85029719AE832744FB138747007C
:1008D000232AE4FA9C432320F4FC29A8832704FC60
:1008E000138717002320E4FC83C707000327C4FBFA
:1008F0003E850297832704FC83C70700E5F3F9AC24
:10090000832744FB13874700232AE4FA9C432320D0
:10091000F4FC832704FC63D60702832704FCB30797
:10092000F0402320F4FC85472322F4FE19A88327F6
:1009300044FB13874700232AE4FA9C432320F4FC5A
:1009400011A00100032704FCA947B377F70213F7AE
:10095000F70F832704FE938617002320D4FE130786
:1009600007031377F70FC117A297238CE7FC032720
:1009700004FCA947B357F7022320F4FC832704FCA7
:10098000F1F3A9AC8327C4FE850703C707009307CB
:10099000C0066314F7108327C4FE85072326F4FEE0
:1009A0008327C4FE850703C7070093075007631614
:1009B000F7028327C4FE85072326F4FE832744FB22
:1009C0009D07E19B13878700232AE4FA9843DC43C1
:1009D0002320E4FC2322F4FCB1A8832744FB9D07D9
:1009E000E19B13878700232AE4FA9843DC43232002
:1009F000E4FC2322F4FC032704FC832744FC63DB90
:100A00000702032504FC832544FC01478147330684
:100A1000A740328833380701B386B740B387064111
:100A2000BE863287B6872320E4FC2322F4FC854768
:100A30002322F4FE032704FC832744FC2946814635
:100A40003A85BE855D322A87AE871377F70F8327F5
:100A500004FE938617002320D4FE130707031377A1
:100A6000F70FC117A297238CE7FC032704FC832709
:100A700044FC294681463A85BE85EFF02FE12A875E
:100A8000AE872320E4FC2322F4FC032604FC832607
:100A900044FCB287D58FD9FF91A28327C4FE850776
:100AA00003C70700930750076311F7028327C4FEAB
:100AB00085072326F4FE832744FB13874700232A58
:100AC000E4FA9C432320F4FC3DA0832744FB1387D6
:100AD0004700232AE4FA9C432320F4FC832704FCE8
:100AE00063DB0700832704FCB307F0402320F4FCFA
:100AF00085472322F4FE032704FCA947B377F702B6
:100B000013F7F70F832704FE938617002320D4FEE4
:100B1000130707031377F70FC117A297238CE7FC7E
:100B2000032704FCA947B357F7022320F4FC8327CB
:100B300004FCF1F365A0930700022322F4FE83274F
:100B400044FB13874700232AE4FA9C432320F4FC48
:100B5000832704FC93F7F70FBD8B93F7F70F93E709
:100B6000070313F7F70F832704FEC117A297238CFF
:100B7000E7FC832704FEC117A29703C787FD9307ED
:100B8000900363FDE702832704FEC117A29783C782
:100B900087FD9D0793F7F70F1397870161878327D9
:100BA00044FEE207E187D98FE207E18713F7F70FE9
:100BB000832704FEC117A297238CE7FC832704FE3A
:100BC00085072320F4FE832704FC91832320F4FC73
:100BD000832704FCB5FF232204FE0100832744FE83
:100BE000B1CB0347F4FD93070003631DF700832790
:100BF000C4FB1305D0028297832784FEFD172324AC
:100C0000F4FE0DA8832704FE138717002320E4FEBB
:100C1000C117A2971307D002238CE7FC21A88347B2
:100C2000F4FD0327C4FB3E850297832784FEFD174E
:100C30002324F4FE032784FE832704FEE3C1E7FE9A
:100C400019A8832704FEC117A29783C787FD03272E
:100C5000C4FB3E850297832704FE1387F7FF2320FA
:100C6000E4FEE5F321A8010011A001008327C4FEE2
:100C700083C707000327C4FB3E8502978327C4FE72
:100C800085072326F4FE8327C4FE83C70700E39469
:100C900007B411A00100B6402644616182800111B1
:100CA00022CE00102326A4FE371701111C4B93E718
:100CB00007011CCB370702111C47F99B1CC7B787DC
:100CC0007D01138707848327C4FEB307F7409396FB
:100CD00017008327C4FE13972700B707021133D7E5
:100CE000E602D8C7814717F700001307273C1CC34B
:100CF00017F700001307473B1CC317F70000130743
:100D0000673A1CC3814717F700001307E73A1CC373
:100D100017F700001307073A1CC317F70000130763
:100D200027391CC3370702111C4793E727001CC74C
:100D30000100724405618280011122CE0010AA8751
:100D4000A307F4FE97F7000093874736984393076D
:100D5000D00763CEE706370702111C47ED9B1CC77F
:100D600097F70000938707349C439386170017F783
:100D700000001307273314C317F700001307872851
:100D8000BA970347F4FE2380E70097F700009387A4
:100D9000E7319C431387170097F7000093870731CB
:100DA00098C397F700009387E72F98439307F007BE
:100DB00063D8E70097F700009387C72E23A00700AA
:100DC000370702111C4793E747001CC711A0010019
:100DD000724405618280411122C636C43AC23EC0C7
:100DE0000008B70702119C478583858B93F7F70F9F
:100DF000C1CBB7070211DC438583858B93F7F70FCF
:100E0000C1C3B7070211984397F700009387472A99
:100E10009C431377F70F97F600009386A626B697A4
:100E20002380E70097F70000938707299843F54749
:100E300063C8E70497F70000938787279C431387CD
:100E4000170097F700009387A72698C397F700002D
:100E5000938787269C431387170097F70000938793
:100E6000A72598C397F70000938787249843FD47E9
:100E700063D8E70097F700009387872323A0070034
:100E8000B70702119C478983858B93F7F70FC5C776
:100E9000B7070211DC438983858B93F7F70FC1CF26
:100EA00097F7000093870720984397F700009387F0
:100EB000A71F9C43631EF70097F700009387071F47
:100EC00023A00700370702111C47ED9B1CC7A5A0F4
:100ED00097F700009387471D9C439386170017F7E9
:100EE00000001307671C14C317F7000013078711CE
:100EF000BA9783C7070013F7F70FB707021198C314
:100F000097F700009387871A9C431387F7FF97F79B
:100F100000009387A71998C397F700009387C71815
:100F200098439307F00763D8E70097F7000093878B
:100F3000A71723A0070001003244A24612478247A8
:100F4000410173002030011122CE00102326A4FE9F
:100F50002324B4FE2322C4FE97F7000093870716CC
:100F6000032784FE98C397F700009387671503272C
:100F700044FE98C3F322403005434203B3E26200CB
:100F800073904230371701111C4B93E787001CCB3D
:100F9000378701111C47F99B1CC7378701111C4774
:100FA00093E727001CC7B787011123A00700B78765
:100FB000011119671307771AD8C78327C4FE13973F
:100FC0001700B787011198CB378701111C4793E7AA
:100FD00017001CC70100724405618280011122CEF6
:100FE00000102326A4FE371701111C4B93E787003E
:100FF0001CCB378701111C47F99B1CC73787011190
:101000005C43F59B5CC3B787011123A00700B7873A
:10101000011119671307771AD8C78327C4FE1397DE
:101020001700B787011198CB378701111C4793E749
:1010300017001CC70100B7870111DC438583858B2E
:1010400093F7F70FEDDB0100010072440561828028
:101050005D7186C696C49AC29EC022DE2ADC2EDA54
:1010600032D836D63AD43ED242D046CE72CC76CAA8
:101070007AC87EC68008B7870111DC438583858BDB
:1010800093F7F70F85CB97F70000938727039C43CF
:1010900089CF97F7000093876702984397F700007E
:1010A000938707029C433E850297378701115C4373
:1010B000F59B5CC30100B640A642164386437254BA
:1010C0006255D2554256B256225792570258F248AC
:1010D000624ED24E424FB24F616173002030011117
:1010E00022CE00102326A4FE97F70000938787FDE9
:1010F000054798C30100724405618280411106C60C
:1011000022C40008371701111C4B93E717001CCBB2
:10111000371701111C4B93E727001CCB3717011120
:101120001C4B93E747001CCBB70700119387074080
:1011300023A20700B70700119387074041677D1777
:1011400098C7B7170011138707801C47F99B1CC766
:10115000B7170011138707801C47F59B1CC7B717EB
:101160000011138707801C47ED9B1CC7B7170011A0
:10117000138707801C47DD9B1CC7370700111C47DE
:10118000F99B1CC7370700111C47F59B1CC7370785
:1011900000111C47ED9B1CC7370700111C47DD9B46
:1011A0001CC7370700111C47BD9B1CC73707001120
:1011B0001C4793F7F7FD1CC7370700111C4793F72F
:1011C000F7FB1CC7370700111C4793F7F7F71CC73D
:1011D000370700111C4793F7F7EF1CC737070011BB
:1011E0001C4793F7F7DF1CC7370700111C4793F71D
:1011F000F7BF1CC7370700111C47FD769386F67FA3
:10120000F58F1CC7370700111C47FD76FD16F58FBB
:101210001CC7370700111C47F976FD16F58F1CC750
:10122000370700111C47F176FD16F58F1CC73707ED
:1012300000111C47E176FD16F58F1CC7F167138579
:101240000720B13C370702111C4793E717001CC762
:10125000F322403005435203B3E262007390423000
:10126000F322003093E28200739002309705000071
:101270009385856117050000130545ACEFF00FCF8E
:101280000146970500009385C5E51305803E653945
:10129000B747021123A20700B747021123A4070092
:1012A000B747021123A00700B74702111307001424
:1012B00098CBB747021113070019D8C70545393B2A
:1012C000B7170011938707809C438983858B93F719
:1012D000F70FC9CBB7470211D8439307D02263E376
:1012E000E708B7470211DC4313870705B747021128
:1012F000DC476364F706B7470211D843B7470211CA
:10130000DC479387A705637AF704B74702119C4728
:101310001387A705B74702119C4B63FCE700B7474B
:1013200002119847B74702119C4B9387A705636B3F
:10133000F702B74702119847B74702119C4B9387B2
:10134000A705637CF700B74702119C471387A705E1
:10135000B74702119C4B63E7E700B7470211D84338
:101360000507D8C3B7170011938707809C4385836F
:10137000858B93F7F70FD1C7B7470211DC43D1C371
:10138000B7470211D843B7470211DC479387A70537
:1013900063E4E706B7470211DC4313870705B74745
:1013A0000211DC4763FAE704B74702119C47138731
:1013B000A705B74702119C4B63FCE700B747021132
:1013C0009847B74702119C4B9387A705636BF702B9
:1013D000B74702119847B74702119C4B9387A7055F
:1013E000637CF700B74702119C471387A705B747EF
:1013F00002119C4B63E7E700B7470211D8437D1702
:10140000D8C3B7170011938707809C43858B93F748
:10141000F70FD1C7B74702119C47D1C3B747021195
:101420009847B74702119C4B9387A70563E4E706EB
:10143000B74702119C471387A705B74702119C4B7A
:1014400063FAE704B7470211DC4313870705B74780
:101450000211DC4763FCE700B7470211D843B747E6
:101460000211DC479387A705636BF702B7470211A8
:10147000D843B7470211DC479387A705637CF70081
:10148000B7470211DC4313870705B7470211DC4752
:1014900063E7E700B747021198477D1798C7B7176A
:1014A0000011938707809C438D83858B93F7F70FFB
:1014B000C9CBB747021198479307501863E3E70871
:1014C000B74702119C471387A705B74702119C4BEA
:1014D0006364F706B74702119847B74702119C4B60
:1014E0009387A705637AF704B7470211DC43138794
:1014F0000705B7470211DC4763FCE700B747021155
:10150000D843B7470211DC479387A705636BF702FF
:10151000B7470211D843B7470211DC479387A705A5
:10152000637CF700B7470211DC4313870705B74711
:101530000211DC4763E7E700B74702119847050748
:1015400098C7B70700119C43858B93F7F70F91CB92
:10155000B74702119843B74702111367170098C3A2
:1015600001A8B74702119843B7470211799B98C366
:10157000B70700119C438583858B93F7F70F91CBB9
:10158000B74702119843B74702111367270098C362
:1015900001A8B74702119843B7470211759B98C33A
:1015A000B70700119C438983858B93F7F70F91CB85
:1015B000B74702119843B74702111367470098C312
:1015C00001A8B74702119843B74702116D9B98C312
:1015D000B70700119C438D83858B93F7F70F91CB51
:1015E000B74702119843B74702111367870098C3A2
:1015F00001A8B74702119843B74702115D9B98C3F2
:10160000B70700119C439183858B93F7F70F91CB1C
:10161000B74702119843B74702111367070198C3F0
:1016200001A8B74702119843B74702113D9B98C3E1
:10163000B70700119C439583858B93F7F70F91CBE8
:10164000B74702119843B74702111367070298C3BF
:1016500009A8B74702119843B74702111377F7FD5E
:1016600098C3B70700119C439983858B93F7F70FB5
:1016700091CBB74702119843B7470211136707048C
:1016800098C309A8B74702119843B74702111377C7
:10169000F7FB98C3B70700119C439D83858B93F795
:1016A000F70F91CBB74702119843B7470211136761
:1016B000070898C309A8B74702119843B747021112
:1016C0001377F7F798C3B70700119C43A183858B65
:1016D00093F7F70F91CBB74702119843B747021121
:1016E0001367071098C309A8B74702119843B74773
:1016F00002111377F7EF98C3B70700119C43A58336
:10170000858B93F7F70F91CBB74702119843B747F3
:1017100002111367072098C309A8B747021198431D
:10172000B74702111377F7DF98C3B70700119C433F
:10173000A983858B93F7F70F91CBB7470211984395
:10174000B74702111367074098C309A8B7470211AA
:101750009843B74702111377F7BF98C3B707001133
:101760009C43AD83858B93F7F70F81CFB747021169
:101770009443B7470211056713070780558F98C335
:1017800019A8B74702119443B74702117D77130791
:10179000F77F758F98C3B70700119C43B183858B82
:1017A00093F7F70F91CBB74702119443B747021154
:1017B0000567558F98C311A8B74702119443B747DF
:1017C00002117D777D17758F98C3B70700119C4371
:1017D000B583858B93F7F70F91CBB74702119443ED
:1017E000B74702110967558F98C311A8B74702116F
:1017F0009443B747021179777D17758F98C3B70760
:1018000000119C43B983858B93F7F70F91CBB747B2
:1018100002119443B74702111167558F98C311A85D
:10182000B74702119443B747021171777D17758F3F
:1018300098C3B70700119C43BD83858B93F7F70FBF
:1018400091CBB74702119443B74702112167558FD7
:1018500098C3ADB4B74702119443B74702116177FB
:101860007D17758F98C399BC411122C60008B70730
:1018700000119387074041677D17D8C301003244A8
:10188000410182800A21202D2D56474120576F7239
:101890006B696E672D2D21200A00000000010202F5
:1018A00003030303040404040404040405050505F8
:1018B00005050505050505050505050506060606D4
:1018C00006060606060606060606060606060606B8
:1018D00006060606060606060606060607070707A4
:1018E0000707070707070707070707070707070788
:1018F0000707070707070707070707070707070778
:101900000707070707070707070707070707070767
:101910000707070707070707070707070808080853
:101920000808080808080808080808080808080837
:101930000808080808080808080808080808080827
:101940000808080808080808080808080808080817
:101950000808080808080808080808080808080807
:1019600008080808080808080808080808080808F7
:1019700008080808080808080808080808080808E7
:1019800008080808080808080808080808080808D7
:10199000080808080808080808080808A2F1FFFF56
:1019A000CEF2FFFFCEF2FFFFCEF2FFFFCEF2FFFF3F
:1019B000CEF2FFFFCEF2FFFFCEF2FFFFCEF2FFFF2F
:1019C000CEF2FFFFCEF2FFFF10EFFFFF64EFFFFF4D
:1019D000CEF2FFFFCEF2FFFFCEF2FFFFCEF2FFFF0F
:1019E00064EFFFFFCEF2FFFFCEF2FFFFE8EFFFFF55
:1019F000CEF2FFFFCEF2FFFFCEF2FFFFCEF2FFFFEF
:101A0000CEF2FFFFCEF2FFFF2CEFFFFFCEF2FFFF83
:101A100092EFFFFFCEF2FFFFCEF2FFFF9AF1FFFF42
:101A20001000000000000000037A5200017C010158
:101A30001B0D0200100000001800000050E6FFFF20
:101A40005E03000000000000100000000000000025
:101A5000037A5200017C01011B0D020010000000FE
:101A60001800000086E9FFFF1E03000000000000D0
:0400000510000000E7
:00000001FF
