:020000040800F2
:100000006F00804F6F00404F6F00004F6F00C04E79
:100010006F00804E6F00404E6F00004E6F00C04D6D
:100020006F00804D6F00404D6F00004D6F00C04C61
:100030006F00804C6F00404C6F00004C6F00C04B55
:100040006F0060756F00A00A6F00600A6F00200AE1
:100050006F00E05F6F00A0096F0060096F0020096A
:100060006F00E0086F00A0086F0060086F002008B4
:100070006F00E0076F00A0076F0060076F002007A8
:100080006F00C0006F0040476F0000471701020873
:10009000130141F7971C0000938C8C83170D010806
:1000A000130D4DF6970D0108938DCDF5635ABD01E3
:1000B00003AE0C002320CD01910C110DE3DAADFF4E
:1000C000170D0108130D0DF4970D0108938D4D2C9C
:1000D0006357BD0123200D00110DE3DDADFF1305B6
:1000E000000093050000EF00C02F6F00400001A04A
:1000F000411106C6F322003093E2820093C28200CF
:1001000073900230B7170111984B716513050520E4
:100110001367170098CB984B1367270098CB984B21
:100120001367470098CBFD26370702111C4793E75A
:1001300017001CC7F322403005435203B3E26200AC
:1001400073904230D125F322003093E28200739005
:100150000230B2404101828001114AC82A89054516
:1001600006CE22CC26CA4EC652C4AE891374F90FED
:1001700056C2B5292285170A0108130AAA0D13448D
:10018000C4005294AD2103440400814463CC240193
:1001900022856244F240D2444249B249224A924AFC
:1001A0000561B1A1B38A990003C50A0085048121C4
:1001B00083C70A003D8C529403440400C1BF170555
:1001C00001080325251982809707010823A4071831
:1001D0008280397152D456D2170A0108130A8A173D
:1001E000970A0108938A8A1803270A0083A70A003E
:1001F00006DE22DC26DA4AD84ED65AD05ECE62CC53
:1002000066CA6346F7009707010823AF0714014445
:10021000170C0108130C0C04170901081309091421
:100220009704010893844414170B0108130B8B13D4
:10023000970C0108938C0CDD9709010893894912EA
:10024000970B0000938BCB5F35A09926834709005D
:100250008946A98F93F7F70FE29703C707009C40E1
:100260002300E900638AD70863C6F602B1CF0547C9
:10027000638EE706112671F9F25022856254D2543A
:100280004259B259225A925A025BF24B624CD24CFA
:10029000216182808D46E39FD7FC59E383C60C0021
:1002A00003A7090079542306D1009946A306D1007B
:1002B00063D8E70683C71C00954663EFF6108A07EC
:1002C000DE979C43DE9782878547E315F5FAB147B1
:1002D0002300F9009707010823A6070883270A00CF
:1002E0009387470623A0FA0088C069B723A0A90016
:1002F000132515050605CDBF83270B0013871700AF
:10030000E6972380A70083A709002320EB00E3439F
:10031000F7F68D479CC0B9BF7D546C0009452D3D53
:100320009707010823A20704B1B783D62C00130452
:10033000C7FF170601080326260293F7160081E778
:100340001377140005C7170701081307A7CB8147C8
:100350000507E3D487FC03D52C0083453700B3861B
:10036000C700AA962380B6008507DDB793F726005D
:10037000B9E393772400A1E393552440970601083D
:10038000938646C89106E38AB7F803D82C001397E2
:10039000270088423297429708C38507E5B703D5FF
:1003A00027001316170036962310A60005078907A5
:1003B000E317B7FE9DB793551440B296970701080F
:1003C000938747C4EDB783D74C00C20717070108CE
:1003D0002324F7F8014491B7D547A306F100DDBF08
:1003E0008280411106C622C426C24AC01133B70713
:1003F0000011938707409847A166014613671700CD
:1004000098C79847970500009385C5FD0545136774
:10041000270098C79847170400001304E4431367A4
:10042000470098C79847558F98C7D843E176FD167F
:1004300013671700D8C3D843759BD8C3D8436D9BA7
:10044000D8C3D843758FD8C3DD2C0345040059EDBC
:10045000B7170111944388432547636CD7081305E8
:1004600005031375F50F61222945512279282A8445
:1004700075FD370702115C438D83858BEDDFB70770
:10048000001193870740D84381441309F07C136718
:100490002700D8C3153BCD2001C5253B2A848544C0
:1004A000393B6353A90099C0E35704FE3707021193
:1004B0005C438D83858BEDDFB70700119387074081
:1004C000D843014513674700D8C3371701115C4370
:1004D000F19B93E717005CC35C4393E707105CC391
:1004E000B240224492440249410182800504012223
:1004F000A9BF13057503B5B7B70700119387074068
:10050000D843A166558FD8C38280170501080325FB
:10051000E5E68280371701111C4B93E707011CCBDE
:10052000370702111C47F99B1CC7B7877D019387CA
:100530000784898F86070A05B3D7A7025CC7970788
:10054000010823AD07E29707010823AD07E29707EB
:10055000010823A707E29707010823AB07E09707E5
:10056000010823AB07E09707010823A507E01C4714
:1005700093E727001CC7828017050108032585DF44
:100580009707010883A747DF1D8D3335A0008280C0
:1005900097070108938747DE9706010883A686DD43
:1005A00098436398E6009707010823A307DC0145F9
:1005B000828094431387160098C317070108130716
:1005C00067A9369797060108938686DA03450700E0
:1005D00098421375F50F7D1798C298439307F00F53
:1005E00063D6E7009707010823A807D8828017077A
:1005F00001081307A7D814439307D00F63C8D70483
:10060000B70602119C46ED9B9CC69707010893878D
:1006100027D790439306160094C397060108938644
:1006200066B3B2962380A6001443850614C398438C
:100630009307F00F63D6E7009707010823A207D4BA
:10064000370702111C4793E747001CC782804111FE
:100650003AC232C636C43EC0370702111C478583F2
:10066000858BA1CF5C438583858BA1CB9707010840
:10067000938747D014439043170701081307879DBA
:1006800093F6F60F32972300D700170701081307D8
:1006900027CE10439306D00F63C1C602944385064C
:1006A00094C31443850614C398439307F00F63D68D
:1006B000E7009707010823AF07CAB7070211984759
:1006C0000983058B1DC7D8430983058B1DC31707F5
:1006D0000108130727CB17060108032666CA14432F
:1006E0006310D60217070108232A07C898476D9B95
:1006F00098C73246A2461247824741017300203014
:1007000010439306160014C397060108938686A427
:10071000B29683C6060093F6F60F94C397060108B7
:100720009386C6C59C42FD179CC218439307F00FE1
:10073000E3D1E7FC9707010823A607C45DBF97072D
:10074000010823A3B7C49707010823A1C7C4F32254
:10075000403005434203B3E26200739042303717E2
:1007600001111C4B060593E787001CCBB7870111CD
:100770009847799B98C798471367270098C71967C8
:1007800023A007001307771AD8C788CB98471367A9
:10079000170098C7828039713ECC06DE16DC1ADA63
:1007A0001ED82AD62ED432D236D03ACE42CA46C825
:1007B00072C676C47AC27EC0B7870111DC438583D6
:1007C000858B85C39707010883A707BC91C71705C9
:1007D00001080325A5BB8297378701115C43F59B70
:1007E0005CC3F250E2525253C2533255A2551256D4
:1007F00082567247E2475248C248324EA24E124FCA
:10080000824F2161730020300147970501089385CD
:1008100065A413060010BA87A146860713F50710D2
:1008200019C193C77700FD16EDFAB386E500238062
:10083000F6000507E311C7FE82800000EEFAFFFF15
:10084000DCFAFFFF8AFBFFFF98FBFFFF8AFBFFFF3D
:1008500098FBFFFF55FF0A30303030303030310A1E
:10086000426F6F746C6F616465722049434F4253ED
:10087000206C696768740A0A00000000100000001C
:1008800000000000037A5200017C01011B0D0200F0
:100890001000000018000000000000000000000030
:1008A000000000001000000000000000037A520069
:1008B000017C01011B0D0200100000001800000067
:0C08C0000000000000000000000000002C
:0400000508000000EF
:00000001FF
