:020000040800F2
:100000006F00E0176F00A0176F0060176F002017D8
:100010006F00E0166F00A0166F0060166F002016CC
:100020006F00E0156F00A0156F0060156F002015C0
:100030006F00E0146F00A0146F0060146F002014B4
:100040006F00C0276F00A00A6F00600A6F00200ACF
:100050006F00E0136F00A0096F0060096F002009B6
:100060006F00E0086F00A0086F0060086F002008B4
:100070006F00E0076F00A0076F0060076F002007A8
:100080006F00C0006F00A00F6F00600F1701020823
:10009000130141F7970C0000938CCC2E170D01082B
:1000A000130D4DF6970D0108938DCDF5635ABD01E3
:1000B00003AE0C002320CD01910C110DE3DAADFF4E
:1000C000170D0108130D0DF4970D0108938D4DFFC9
:1000D0006357BD0123200D00110DE3DDADFF1305B6
:1000E000000093050000EF00A0006F00400001A099
:1000F000411122C426C206C6B7170111984BB72476
:100100000211374402111367170098CB984B1367FD
:10011000270098CB984B1367470098CBB70700117F
:1001200093870740416723A207007D1798C7B72729
:1001300002111307500598C39843D8C337470211DB
:100140002320070023A007000547D8C3094798C705
:100150000D47D8C71305401F0D229C4085079CC042
:10016000B7270211D8430507D8C39847050798C792
:10017000D8470507D8C71C4085071CC0E1BFB70793
:1001800000114167938707407D17D8C382804111D2
:100190003AC232C636C43EC0370702111C478583B7
:1001A000858BB1CB5C438583858BB1C797070108ED
:1001B000938787EF1443904317070108130787E4D9
:1001C00093F6F60F32972300D7001707010813079D
:1001D00067ED1043F54663C0C6029443850694C399
:1001E0001443850614C39843FD4763D6E700970779
:1001F000010823AB07EAB707021198470983058B6B
:100200001DC7D8430983058B1DC3170701081307B2
:1002100067EA170601080326A6E914436310D6020D
:1002200017070108232407E898476D9B98C73246B3
:10023000A2461247824741017300203010439306C3
:10024000160014C3970601089386C6DDB29683C6CE
:10025000060093F6F60F94C397060108938606E509
:100260009C42FD179CC218439307F007E3D1E7FCBB
:100270009707010823A007E45DBF371701111C4B46
:10028000060593E787001CCBB78701119847799B38
:1002900098C7D843759BD8C3196723A007001307D5
:1002A000771AD8C788CB98471367170098C737873E
:1002B00001115C438583858BEDDF828039713ECCF3
:1002C00006DE16DC1ADA1ED82AD62ED432D236D062
:1002D0003ACE42CA46C872C676C47AC27EC0B787D2
:1002E0000111DC438583858B85C39707010883A7AC
:1002F000A7DC91C717050108032545DC82973787DE
:1003000001115C43F59B5CC3F250E2525253C2535D
:100310003255A255125682567247E2475248C24899
:10032000324EA24E124F824F2161730020300000E6
:100330001000000000000000037A5200017C01015F
:100340001B0D02001000000018000000000000005B
:10035000000000000000000010000000000000008D
:10036000037A5200017C01011B0D02001000000005
:100370001800000000000000000000000000000065
:0400000508000000EF
:00000001FF
